:020000040000FA
:060000000A128A110C280F
:10000800FE00030EF2000A08F3000A128A11C9283A
:100018000A128A110F28F701F80183010A128A11BE
:100028007F280530831603138500053083160317D0
:1000380088008901831603138601880187018312CA
:1000480003138601831603138715871281308312E1
:1000580003139F008830831603139F0075308F00A9
:100068008B170B170C17831203130C138316031328
:100078008C15831203138C1194168316031385169B
:100088008715871207162430831203139400403013
:100098008316031394008312031386011308F400D4
:1000A8007408F900941314130800831203139F189B
:1000B8005E285F287E280000000000000000000085
:1000C8000000000000000000000000000000000028
:1000D8000000000000000000000000000000000018
:1000E8000000000000000000000000000000831273
:1000F80003139F1408000A128A1115200A128A1184
:100108000A128A1159200A128A110A128A11EE203B
:100118000A128A1178088312031386000A128A11B8
:10012800A4200A128A110330F6009730F500F50B67
:100138009B28F60B9B28A02884280A128A110C28D1
:10014800193078020318A928AA28AE2883120313A5
:10015800880108151A307802031CB328B428BE2871
:10016800243078020318B928BA28BE28831203134A
:100178008801881425307802031CC328C428C8289D
:1001880083120313880108140800831203130C1F39
:10019800CE28CF28DD280C13831603131E08F00081
:1001A8007008F8007808F0000310700CF10071086E
:1001B800F80083128C1DE128E228E7288C11130827
:1001C800F0007008F90073088A00720E8300FE0EB2
:0E01D8007E0E090078088312031393000800BE
:04400E00D420FF3F7C
:00000001FF
