:020000040000FA
:060000000A128A110C280F
:10000800FE00030EF1000A08F2000A128A11A52860
:100018000A128A110F28F601F70183010A128A11C0
:1000280052282530831603138500053083160317DD
:1000380088008901831603138715871288018601B2
:100048008130831203139F00831603139F017530B9
:100058008F008B170B170C17831203130C138316BF
:1000680003138C15831203138C1194168316031330
:1000780085168715871207162430831203139400F8
:100088004030831603139400831203138601130868
:10009800F3007308F8009413141308000A128A1165
:1000A80015200A128A110A128A117F200A128A114F
:1000B80076088312031388000A128A11C4200A12D0
:1000C8008A1183160313141C6A286B286F2883125D
:1000D8000313061472288312031306100330F50065
:1000E8009730F400F40B7628F50B76287B285728F0
:1000F8000A128A110C28831203139F188428852852
:10010800A42800000000000000000000000000001B
:1001180000000000000000000000000000000000D7
:1001280000000000000000000000000000000000C7
:1001380000000000000000000000831203139F1459
:100148000800831203130C1FAA28AB28B4280C1329
:100158001E08F0007008F7007708F0007008F60035
:100168008C1DB728B828BD288C111308F00070081A
:10017800F80072088A00710E8300FE0E7E0E0900D8
:0A01880077088312031393000800A8
:04400E00D420FF3F7C
:00000001FF
