:020000040000FA
:060000000A128A110C280F
:10000800FE00030EF1000A08F2000A128A11902875
:100018000A128A110F280A128A11C0200A128A119C
:10002800F900F601F70183010A128A111B280A1246
:100038008A1157200A128A117703031D24282528BC
:1000480030288312031306182A282B283028013059
:10005800F4007408F907F7017603031D34283528DE
:1000680041288312031306193A283B2841287908A6
:10007800FF3EF4007408F900F601790883120313AF
:1000880088000A128A11B5200A128A110330F50075
:100098009730F400F40B4E28F50B4E2853282028EF
:1000A8000A128A110C288316031388018316031772
:1000B800880189010F308316031386008312031306
:1000C80086017530831603138F008B170B178B155A
:1000D800161416150B108C15831203138C11941615
:1000E8008316031385168715871207162430831283
:1000F8000313940083160313871587124030940066
:100108008312031386011308F3007308F80094138D
:1001180014132430940008000B1C93289428A32857
:100128000B1083120313061C9A289B289D28F7019D
:10013800F70A061DA028A128A328F601F60A8312AB
:1001480003138C1DA828A928AE288C111308F000C9
:100158007008F80072088A00710E8300FE0E7E0E89
:100168000900831603131418BA28BB28BF28790876
:0A01780083120313930008001034F3
:04400E00D420FF3F7C
:00000001FF
