:020000040000FA
:060000000A128A110C280F
:10000800FE00030EF1000A08F2000A128A11AB2C56
:100018000A128A110F280A128A11A5250A128A11B2
:10002800E3000A128A11A6250A128A11E400831332
:10003800203084004A300A128A119D250A128A113A
:10004800F801F901FA0183010A128A112B280A1210
:100058008A11F7230A128A110A128A11FC210A123C
:100068008A110A128A1190250A128A11F701F70AD1
:1000780001300A128A1113230A128A110B308312D3
:100088000313CA008030CB000A128A11B1230A1266
:100098008A11F701F70A02300A128A1113230A1289
:1000A8008A11183083120313E0006008D300630834
:1000B800E100E2016108D4006208D50036300A1276
:1000C8008A112D210A128A11363083120313CA00AD
:1000D8000030CB000A128A11B1230A128A110530A6
:1000E80083120313E0006008F70002300A128A1135
:1000F80013230A128A11831203132108023EE00017
:100108006008A1001830E0006008D3002108E10071
:10011800E2016108D4006208D50036300A128A115B
:100128002D210A128A11363083120313CA000030B7
:10013800CB000A128A11B1230A128A1109308312DC
:100148000313E0006008F70002300A128A11132333
:100158000A128A11183083120313E0006008D300D2
:100168002008E100E2016108D4006208D5003630B9
:100178000A128A112D210A128A11363083120313AA
:10018800CA000030CB000A128A11B1230A128A1160
:10019800183083120313E0006008D3006308E100FD
:1001A800E2016108D4006208D50036300A128A11CB
:1001B8002D210A128A1136300A128A112A250A12AA
:1001C8008A1164300A128A112A250A128A111830F3
:1001D80083120313E0006008D3002108E100E20164
:1001E8006108D4006208D50022300A128A112D2134
:1001F8000A128A1122300A128A112A250A128A1131
:1002080064300A128A112A250A128A1118308312B8
:100218000313E0006008D3002008E100E201610850
:10022800D4006208D50036300A128A112D210A122C
:100238008A1136300A128A112A250A128A11643064
:100248000A128A112A250A128A1130280A128A11DA
:100258000C2883120313DE005430D6005608DA0047
:10026800E52925305F0603193A293B2947295F0804
:10027800D6005E0884005608831380000130D6003B
:100288005608DE07E529D9014E29C030D6005608A0
:10029800D90468290130D307FF30530784000A12B4
:1002A8008A110A250A128A11DF00D600D7015708D9
:1002B800003A03196029E5295608003A0319F72975
:1002C800753A03194929E5295A0884008313000857
:1002D800DB00840A0008DC000230D6005608DA0782
:1002E800DF01DF0A5F08D6005607013E84000A12C4
:1002F8008A110A250A128A11D7000A128A110A25B8
:100308000A128A11D80058085C02031D8D29570863
:100318005B0203189029912992299C290130D60063
:100328005608DF0705305F06031D9B299C2976299F
:100338005F08D6005608DD00DC290A30CD00003001
:10034800CE005D08D6005607013E84000A128A11C5
:100358000A250A128A11F3000A128A110A250A12BA
:100368008A11F4005C08F6005B08F5000A128A118D
:100378006B230A128A11740883120313D0007308BE
:10038800CF000A128A1136240A128A118312031323
:100398004D08303ED7005708DF005F08D6005E08DA
:1003A80084005608831380000130D6005608DE0703
:1003B800FF30D6005608DD075D0A031DE429E5294C
:1003C800A1290130D307FF30530784000A128A118C
:1003D8000A250A128A11D6005608DF005F08031D95
:1003E800F629F72935295E0884008313800108005F
:1003F800831203130714871407150330F40097308A
:10040800F300F30B052AF40B052A0A2A83120313B7
:100418001308F3007308F80007148714071106304F
:10042800F5001330F400AD30F300F30B192AF40B88
:10043800192AF50B192A202A613083120313930015
:10044800262A00008316031314182B2A2C2A252A7F
:10045800831203131308F3007308A1000714871409
:1004680007150230F5000230F4002130F300F30BD9
:100478003B2AF40B3B2AF50B3B2A83120313130880
:10048800F3007308F8000714871007150630F50005
:100498001330F400AD30F300F30B502AF40B502A5C
:1004A800F50B502A572A61308312031393005D2AF3
:1004B8000000831603131418622A632A5C2A831225
:1004C80003131308F3007308E300071487140715D0
:1004D8000630F5001330F400AD30F300F30B722A48
:1004E800F40B722AF50B722A792A83120313130864
:1004F800F3007308F8000710871407150630F50095
:100508001330F400AD30F300F30B882AF40B882A7B
:10051800F50B882A8F2A6130831203139300952ADA
:1005280000008316031314189A2A9B2A942A83120C
:1005380003131308F3007308A000071487140715A2
:100548000230F5000230F4002130F300F30BAA2A40
:10055800F40BAA2AF50BAA2A080000300A128A11FD
:1005680054250A128A11343083120313CB00F13058
:10057800CA00CA0BBD2ACB0BBD2A03300A128A1146
:1005880076250A128A110D3083120313CB00FB3033
:10059800CA00CA0BCD2ACB0BCD2A03300A128A1106
:1005A80076250A128A111D3083120313CB0090306E
:1005B800CA00CA0BDD2ACB0BDD2A000003300A1261
:1005C8008A1176250A128A1102300A128A117625B2
:1005D8000A128A1102300A128A1176250A128A1121
:1005E80008300A128A1176250A128A1100300A1276
:1005F8008A1176250A128A110C300A128A11762578
:100608000A128A1100300A128A1176250A128A11F2
:1006180006300A128A1176250A128A1108008312F6
:100628000313CC004C03031D1A2B1B2B402B7708FC
:100638007F3ECA004A08CF004F08CA0004300310A2
:10064800CA0CFF3E031D232B4A08CB004B08CD00E4
:100658004F080F39CA004A08CE004D080A128A11FD
:1006680076250A128A11831203134E080A128A1178
:1006780076250A128A116A2B02304C06031D452B77
:10068800462B6A2B7708BF3ECA004A08CF004F089E
:10069800CA0004300310CA0CFF3E031D4E2B4A0843
:1006A800CB004B08CD004F080F39CA004A08CE00CE
:1006B8004D080A128A1176250A128A118312031329
:1006C8004E080A128A1176250A128A110800831226
:1006D8000313CB01CC01730874040319742B752B15
:1006E800AC2BCA01CA0A832B01300310F30DF40D99
:1006F800FF3E031D792B0130F7007708CA07F41F66
:10070800862B872B782B01300310CB0DCC0DFF3EA9
:10071800031D882B74087602031D942B7308750239
:10072800031C972B982B9F2B7308F5027408031C46
:10073800F603F6024B1401300310F40CF30CFF3EE1
:10074800031DA02B0130CA02031DAB2BAC2B872B3A
:100758004C08F4004B08F300080083120313CF0180
:10076800D001DA2B4F084A07CD004B08CC000318FC
:10077800CC0ACF1FC02BCC03831203134C08CE0026
:100788004E08FF004D0884000A128A1100250A123B
:100798008A110A128A1172240A128A1101308312EC
:1007A8000313CF070318D00A0030D0074F084A07B1
:1007B800CD004B08CC000318CC0ACF1FE42BCC0388
:1007C800831203134C08CE004E08FF004D08840026
:1007D8000A128A1100250A128A11003A031DF52B04
:1007E800F62BB62B080083160313880188018601AF
:1007F800FF30850075308F00071607108710071126
:10080800831203130714871407158316031387111C
:100818008712851640309400203083120313940009
:100828008B178B170B17831603138C118312031363
:100838008C110A128A11B1220A128A118316031323
:100848009816181283120313981783160313181394
:1008580018118316031787110C3083160313990098
:100868000C120800831203134D084E0403193D2C83
:100878003E2C6D2CD201D20A4C2C01300310CD0D28
:10088800CE0DFF3E031D422C0130D1005108D20786
:10089800CE1F4F2C502C412C4E085002031D562CB5
:1008A8004D084F02031C592C5A2C602C4D08CF02BE
:1008B8004E08031CD003D00201300310CE0CCD0C1F
:1008C800FF3E031D612C0130D202031D6C2C6D2CE0
:1008D800502C5008CE004F08CD000800F7007708CC
:1008E8000F39F4007408F5007708F039F40074083B
:1008F800F6008312031308157608F4000430031079
:10090800F40CFF3E031D832C74080A128A11542527
:100918000A128A118312031388151A30F400F40B93
:10092800932C000083120313881175080A128A1188
:1009380054250A128A118312031388151A30F400F9
:10094800F40BA42C000083120313881108008312EF
:1009580003138C1DB02CB12CD02C7A08031DB52C98
:10096800B62CBB2C1308F0007008A1008C117A0378
:10097800031DBF2CC02CC52C1308F0007008E30021
:100988008C1102307A06031DCA2CCB2CD02C1308EC
:10099800F0007008A0008C1172088A00710E8300A4
:0609A800FE0E7E0E0900A8
:100A0000FF1B0A2D83137F1883170008840A03191C
:100A1000FF0A080005308A000408840A82070034AF
:100A2000013400340A34003464340034E8340334CC
:100A30001034273450344F34543420345434453433
:100A40004D34203443344F344E3454340034253440
:100A500075340034F700F501F60175087707F300E7
:100A600073088400831300088312031399001A305B
:100A7000F400F830F300F30B3B2DF40B3B2D00009A
:100A80000130F5070318F60A0030F6077608803AB9
:100A9000FF0080307F02031D4F2D04307502031CC0
:100AA000522D532D2D2D0800F300731C582D592D58
:100AB0005D2D831203130816602D83120313081291
:100AC000F31C632D642D662D8816672D8812731D07
:100AD0006A2D6B2D6D2D08176E2D0813F31D712DCA
:100AE000722D742D8817752D88130800F600831257
:100AF0000313081176080A128A1154250A128A1162
:100B00008312031388150B30F5006230F400F40BE8
:100B1000872DF50B872D0000831203138811080021
:100B200000300A128A1176250A128A1101300A123F
:100B30008A1176250A128A11080064008001840A4D
:0E0B400004060319003404069E2D10340D34F3
:04400E00D420FF3F7C
:00000001FF
